{
  "contractName": "FitnessApp",
  "abi": [
    {
      "inputs": [],
      "stateMutability": "nonpayable",
      "type": "constructor"
    },
    {
      "anonymous": false,
      "inputs": [
        {
          "indexed": true,
          "internalType": "address",
          "name": "user",
          "type": "address"
        },
        {
          "indexed": false,
          "internalType": "uint256",
          "name": "amount",
          "type": "uint256"
        },
        {
          "indexed": false,
          "internalType": "uint256",
          "name": "balance",
          "type": "uint256"
        }
      ],
      "name": "CoinsEarned",
      "type": "event"
    },
    {
      "anonymous": false,
      "inputs": [
        {
          "indexed": true,
          "internalType": "address",
          "name": "user",
          "type": "address"
        },
        {
          "indexed": false,
          "internalType": "string",
          "name": "itemName",
          "type": "string"
        },
        {
          "indexed": false,
          "internalType": "uint256",
          "name": "price",
          "type": "uint256"
        },
        {
          "indexed": false,
          "internalType": "uint256",
          "name": "balance",
          "type": "uint256"
        }
      ],
      "name": "ItemBought",
      "type": "event"
    },
    {
      "inputs": [
        {
          "internalType": "string",
          "name": "",
          "type": "string"
        }
      ],
      "name": "itemPrices",
      "outputs": [
        {
          "internalType": "uint256",
          "name": "",
          "type": "uint256"
        }
      ],
      "stateMutability": "view",
      "type": "function",
      "constant": true
    },
    {
      "inputs": [],
      "name": "owner",
      "outputs": [
        {
          "internalType": "address",
          "name": "",
          "type": "address"
        }
      ],
      "stateMutability": "view",
      "type": "function",
      "constant": true
    },
    {
      "inputs": [
        {
          "internalType": "address",
          "name": "",
          "type": "address"
        }
      ],
      "name": "users",
      "outputs": [
        {
          "internalType": "uint256",
          "name": "balance",
          "type": "uint256"
        },
        {
          "internalType": "uint256",
          "name": "steps",
          "type": "uint256"
        },
        {
          "internalType": "uint256",
          "name": "distance",
          "type": "uint256"
        }
      ],
      "stateMutability": "view",
      "type": "function",
      "constant": true
    },
    {
      "inputs": [
        {
          "internalType": "uint256",
          "name": "_steps",
          "type": "uint256"
        },
        {
          "internalType": "uint256",
          "name": "_distance",
          "type": "uint256"
        }
      ],
      "name": "updateUserData",
      "outputs": [],
      "stateMutability": "nonpayable",
      "type": "function"
    },
    {
      "inputs": [],
      "name": "earnCoins",
      "outputs": [],
      "stateMutability": "nonpayable",
      "type": "function"
    },
    {
      "inputs": [
        {
          "internalType": "string",
          "name": "itemName",
          "type": "string"
        },
        {
          "internalType": "uint256",
          "name": "price",
          "type": "uint256"
        }
      ],
      "name": "setItemPrice",
      "outputs": [],
      "stateMutability": "nonpayable",
      "type": "function"
    },
    {
      "inputs": [
        {
          "internalType": "string",
          "name": "itemName",
          "type": "string"
        }
      ],
      "name": "buyItem",
      "outputs": [],
      "stateMutability": "nonpayable",
      "type": "function"
    },
    {
      "inputs": [],
      "name": "getBalance",
      "outputs": [
        {
          "internalType": "uint256",
          "name": "",
          "type": "uint256"
        }
      ],
      "stateMutability": "view",
      "type": "function",
      "constant": true
    },
    {
      "inputs": [
        {
          "internalType": "string",
          "name": "itemName",
          "type": "string"
        }
      ],
      "name": "getItemPrice",
      "outputs": [
        {
          "internalType": "uint256",
          "name": "",
          "type": "uint256"
        }
      ],
      "stateMutability": "view",
      "type": "function",
      "constant": true
    }
  ],
  "bytecode": "0x608060405234801561001057600080fd5b5033600260006101000a81548173ffffffffffffffffffffffffffffffffffffffff021916908373ffffffffffffffffffffffffffffffffffffffff160217905550610e4d806100616000396000f3fe608060405234801561001057600080fd5b50600436106100935760003560e01c80633fb1f8fd116100665780633fb1f8fd1461010c57806375b88fec146101285780638da5cb5b1461015857806393e0511714610176578063a87430ba1461019257610093565b806312065fe01461009857806313f19926146100b65780632d07bd42146100d25780632e9ad37e146100dc575b600080fd5b6100a06101c4565b6040516100ad9190610772565b60405180910390f35b6100d060048036038101906100cb91906108e7565b61020d565b005b6100da610369565b005b6100f660048036038101906100f191906108e7565b61056c565b6040516101039190610772565b60405180910390f35b6101266004803603810190610121919061095c565b610594565b005b610142600480360381019061013d91906108e7565b61064b565b60405161014f9190610772565b60405180910390f35b610160610679565b60405161016d91906109f9565b60405180910390f35b610190600480360381019061018b9190610a14565b61069f565b005b6101ac60048036038101906101a79190610a80565b61072f565b6040516101bb93929190610aad565b60405180910390f35b60008060003373ffffffffffffffffffffffffffffffffffffffff1673ffffffffffffffffffffffffffffffffffffffff16815260200190815260200160002060000154905090565b600060018260405161021f9190610b5e565b9081526020016040518091039020549050806000803373ffffffffffffffffffffffffffffffffffffffff1673ffffffffffffffffffffffffffffffffffffffff1681526020019081526020016000206000015410156102b4576040517f08c379a00000000000000000000000000000000000000000000000000000000081526004016102ab90610bd2565b60405180910390fd5b806000803373ffffffffffffffffffffffffffffffffffffffff1673ffffffffffffffffffffffffffffffffffffffff16815260200190815260200160002060000160008282546103059190610c21565b925050819055503373ffffffffffffffffffffffffffffffffffffffff167ff9e8ac297889a5cb481616f22b2a2c4841a21ae2f9a739722e250c631d9e7589838361034e6101c4565b60405161035d93929190610c8e565b60405180910390a25050565b60008060003373ffffffffffffffffffffffffffffffffffffffff1673ffffffffffffffffffffffffffffffffffffffff16815260200190815260200160002060010154905060008060003373ffffffffffffffffffffffffffffffffffffffff1673ffffffffffffffffffffffffffffffffffffffff16815260200190815260200160002060020154905060006103e8836104059190610cfb565b905060006064836104169190610cfb565b9050600081836104269190610d2c565b9050806000803373ffffffffffffffffffffffffffffffffffffffff1673ffffffffffffffffffffffffffffffffffffffff16815260200190815260200160002060000160008282546104799190610d2c565b9250508190555060008060003373ffffffffffffffffffffffffffffffffffffffff1673ffffffffffffffffffffffffffffffffffffffff1681526020019081526020016000206001018190555060008060003373ffffffffffffffffffffffffffffffffffffffff1673ffffffffffffffffffffffffffffffffffffffff168152602001908152602001600020600201819055503373ffffffffffffffffffffffffffffffffffffffff167f2ed6436f80f50afe709780d7c2fbafdf1a2d539185c51dfbb62b535b45c5fc798261054f6101c4565b60405161055d929190610d82565b60405180910390a25050505050565b600060018260405161057e9190610b5e565b9081526020016040518091039020549050919050565b600260009054906101000a900473ffffffffffffffffffffffffffffffffffffffff1673ffffffffffffffffffffffffffffffffffffffff163373ffffffffffffffffffffffffffffffffffffffff1614610624576040517f08c379a000000000000000000000000000000000000000000000000000000000815260040161061b90610df7565b60405180910390fd5b806001836040516106359190610b5e565b9081526020016040518091039020819055505050565b6001818051602081018201805184825260208301602085012081835280955050505050506000915090505481565b600260009054906101000a900473ffffffffffffffffffffffffffffffffffffffff1681565b816000803373ffffffffffffffffffffffffffffffffffffffff1673ffffffffffffffffffffffffffffffffffffffff16815260200190815260200160002060010181905550806000803373ffffffffffffffffffffffffffffffffffffffff1673ffffffffffffffffffffffffffffffffffffffff168152602001908152602001600020600201819055505050565b60006020528060005260406000206000915090508060000154908060010154908060020154905083565b6000819050919050565b61076c81610759565b82525050565b60006020820190506107876000830184610763565b92915050565b6000604051905090565b600080fd5b600080fd5b600080fd5b600080fd5b6000601f19601f8301169050919050565b7f4e487b7100000000000000000000000000000000000000000000000000000000600052604160045260246000fd5b6107f4826107ab565b810181811067ffffffffffffffff82111715610813576108126107bc565b5b80604052505050565b600061082661078d565b905061083282826107eb565b919050565b600067ffffffffffffffff821115610852576108516107bc565b5b61085b826107ab565b9050602081019050919050565b82818337600083830152505050565b600061088a61088584610837565b61081c565b9050828152602081018484840111156108a6576108a56107a6565b5b6108b1848285610868565b509392505050565b600082601f8301126108ce576108cd6107a1565b5b81356108de848260208601610877565b91505092915050565b6000602082840312156108fd576108fc610797565b5b600082013567ffffffffffffffff81111561091b5761091a61079c565b5b610927848285016108b9565b91505092915050565b61093981610759565b811461094457600080fd5b50565b60008135905061095681610930565b92915050565b6000806040838503121561097357610972610797565b5b600083013567ffffffffffffffff8111156109915761099061079c565b5b61099d858286016108b9565b92505060206109ae85828601610947565b9150509250929050565b600073ffffffffffffffffffffffffffffffffffffffff82169050919050565b60006109e3826109b8565b9050919050565b6109f3816109d8565b82525050565b6000602082019050610a0e60008301846109ea565b92915050565b60008060408385031215610a2b57610a2a610797565b5b6000610a3985828601610947565b9250506020610a4a85828601610947565b9150509250929050565b610a5d816109d8565b8114610a6857600080fd5b50565b600081359050610a7a81610a54565b92915050565b600060208284031215610a9657610a95610797565b5b6000610aa484828501610a6b565b91505092915050565b6000606082019050610ac26000830186610763565b610acf6020830185610763565b610adc6040830184610763565b949350505050565b600081519050919050565b600081905092915050565b60005b83811015610b18578082015181840152602081019050610afd565b83811115610b27576000848401525b50505050565b6000610b3882610ae4565b610b428185610aef565b9350610b52818560208601610afa565b80840191505092915050565b6000610b6a8284610b2d565b915081905092915050565b600082825260208201905092915050565b7f496e73756666696369656e742062616c616e6365000000000000000000000000600082015250565b6000610bbc601483610b75565b9150610bc782610b86565b602082019050919050565b60006020820190508181036000830152610beb81610baf565b9050919050565b7f4e487b7100000000000000000000000000000000000000000000000000000000600052601160045260246000fd5b6000610c2c82610759565b9150610c3783610759565b925082821015610c4a57610c49610bf2565b5b828203905092915050565b6000610c6082610ae4565b610c6a8185610b75565b9350610c7a818560208601610afa565b610c83816107ab565b840191505092915050565b60006060820190508181036000830152610ca88186610c55565b9050610cb76020830185610763565b610cc46040830184610763565b949350505050565b7f4e487b7100000000000000000000000000000000000000000000000000000000600052601260045260246000fd5b6000610d0682610759565b9150610d1183610759565b925082610d2157610d20610ccc565b5b828204905092915050565b6000610d3782610759565b9150610d4283610759565b9250827fffffffffffffffffffffffffffffffffffffffffffffffffffffffffffffffff03821115610d7757610d76610bf2565b5b828201905092915050565b6000604082019050610d976000830185610763565b610da46020830184610763565b9392505050565b7f596f7520617265206e6f7420746865206f776e65720000000000000000000000600082015250565b6000610de1601583610b75565b9150610dec82610dab565b602082019050919050565b60006020820190508181036000830152610e1081610dd4565b905091905056fea264697066735822122089e73deaf9d32db141aceb033928a7a1f5507330bbf06e5fb2d6ead5949254be64736f6c634300080d0033",
  "immutableReferences": {},
  "source": "// SPDX-License-Identifier: MIT\r\npragma solidity ^0.8.13;\r\n\r\ncontract FitnessApp {\r\n    \r\n    struct User {\r\n        uint balance;\r\n        uint steps;\r\n        uint distance; \r\n    }\r\n\r\n    mapping(address => User) public users;\r\n    mapping(string => uint) public itemPrices;\r\n    address public owner;\r\n\r\n    event CoinsEarned(address indexed user, uint amount, uint balance);\r\n    event ItemBought(address indexed user, string itemName, uint price, uint balance);\r\n\r\n    modifier onlyOwner() {\r\n        require(msg.sender == owner, \"You are not the owner\");\r\n        _;\r\n    }\r\n\r\n    constructor(){ \r\n        owner = msg.sender;\r\n    }\r\n\r\n    function updateUserData(uint _steps, uint _distance) public {\r\n        users[msg.sender].steps = _steps;\r\n        users[msg.sender].distance = _distance;\r\n    }\r\n\r\n    function earnCoins() public {\r\n        uint steps = users[msg.sender].steps;\r\n        uint distance = users[msg.sender].distance;\r\n        uint stepCoins = steps / 1000; \r\n        uint distanceCoins = distance / 100; \r\n        uint totalCoins = stepCoins + distanceCoins;\r\n\r\n        users[msg.sender].balance += totalCoins;\r\n        users[msg.sender].steps = 0; \r\n        users[msg.sender].distance = 0; \r\n\r\n        emit CoinsEarned(msg.sender, totalCoins, getBalance());\r\n    }\r\n\r\n    function setItemPrice(string memory itemName, uint price) public onlyOwner {\r\n        itemPrices[itemName] = price;\r\n    }\r\n\r\n    function buyItem(string memory itemName) public {\r\n        uint price = itemPrices[itemName];\r\n        require(users[msg.sender].balance >= price, \"Insufficient balance\");\r\n\r\n        users[msg.sender].balance -= price;\r\n\r\n        emit ItemBought(msg.sender, itemName, price, getBalance());\r\n    }\r\n\r\n    function getBalance() public view returns (uint) {\r\n        return users[msg.sender].balance;\r\n    }\r\n\r\n    function getItemPrice(string memory itemName) public view returns (uint) {\r\n        return itemPrices[itemName];\r\n    }\r\n}\r\n",
  "sourcePath": "F:\\WATCH\\watch\\contracts\\smart_contract.sol",
  "compiler": {
    "name": "solc",
    "version": "0.8.13+commit.abaa5c0e.Emscripten.clang"
  },
  "schemaVersion": "3.4.16",
  "updatedAt": "2024-06-26T14:50:19.583Z",
  "networkType": "ethereum",
  "devdoc": {
    "kind": "dev",
    "methods": {},
    "version": 1
  },
  "userdoc": {
    "kind": "user",
    "methods": {},
    "version": 1
  }
}